{
  "_format": "hh-sol-artifact-1",
  "contractName": "Victim",
  "sourceName": "contracts/Victim.sol",
  "abi": [
    {
      "inputs": [
        {
          "internalType": "address",
          "name": "",
          "type": "address"
        }
      ],
      "name": "balanceOf",
      "outputs": [
        {
          "internalType": "uint256",
          "name": "",
          "type": "uint256"
        }
      ],
      "stateMutability": "view",
      "type": "function"
    },
    {
      "inputs": [],
      "name": "deposit",
      "outputs": [],
      "stateMutability": "payable",
      "type": "function"
    },
    {
      "inputs": [],
      "name": "getBalance",
      "outputs": [
        {
          "internalType": "uint256",
          "name": "",
          "type": "uint256"
        }
      ],
      "stateMutability": "view",
      "type": "function"
    },
    {
      "inputs": [],
      "name": "withdraw",
      "outputs": [],
      "stateMutability": "nonpayable",
      "type": "function"
    }
  ],
  "bytecode": "0x6080604052348015600f57600080fd5b506106578061001f6000396000f3fe60806040526004361061003f5760003560e01c806312065fe0146100445780633ccfd60b1461006f57806370a0823114610086578063d0e30db0146100c3575b600080fd5b34801561005057600080fd5b506100596100cd565b6040516100669190610352565b60405180910390f35b34801561007b57600080fd5b506100846100d5565b005b34801561009257600080fd5b506100ad60048036038101906100a891906103d0565b610287565b6040516100ba9190610352565b60405180910390f35b6100cb61029f565b005b600047905090565b60008060003373ffffffffffffffffffffffffffffffffffffffff1673ffffffffffffffffffffffffffffffffffffffff1681526020019081526020016000205411610156576040517f08c379a000000000000000000000000000000000000000000000000000000000815260040161014d9061045a565b60405180910390fd5b60003373ffffffffffffffffffffffffffffffffffffffff166000803373ffffffffffffffffffffffffffffffffffffffff1673ffffffffffffffffffffffffffffffffffffffff168152602001908152602001600020546040516101ba906104ab565b60006040518083038185875af1925050503d80600081146101f7576040519150601f19603f3d011682016040523d82523d6000602084013e6101fc565b606091505b5050905080610240576040517f08c379a00000000000000000000000000000000000000000000000000000000081526004016102379061050c565b60405180910390fd5b60008060003373ffffffffffffffffffffffffffffffffffffffff1673ffffffffffffffffffffffffffffffffffffffff1681526020019081526020016000208190555050565b60006020528060005260406000206000915090505481565b600034116102e2576040517f08c379a00000000000000000000000000000000000000000000000000000000081526004016102d99061059e565b60405180910390fd5b346000803373ffffffffffffffffffffffffffffffffffffffff1673ffffffffffffffffffffffffffffffffffffffff168152602001908152602001600020600082825461033091906105ed565b92505081905550565b6000819050919050565b61034c81610339565b82525050565b60006020820190506103676000830184610343565b92915050565b600080fd5b600073ffffffffffffffffffffffffffffffffffffffff82169050919050565b600061039d82610372565b9050919050565b6103ad81610392565b81146103b857600080fd5b50565b6000813590506103ca816103a4565b92915050565b6000602082840312156103e6576103e561036d565b5b60006103f4848285016103bb565b91505092915050565b600082825260208201905092915050565b7f496e73756666696369656e742062616c616e6365000000000000000000000000600082015250565b60006104446014836103fd565b915061044f8261040e565b602082019050919050565b6000602082019050818103600083015261047381610437565b9050919050565b600081905092915050565b50565b600061049560008361047a565b91506104a082610485565b600082019050919050565b60006104b682610488565b9150819050919050565b7f5472616e73666572206661696c65642100000000000000000000000000000000600082015250565b60006104f66010836103fd565b9150610501826104c0565b602082019050919050565b60006020820190508181036000830152610525816104e9565b9050919050565b7f4465706f73697420616d6f756e74206d7573742062652067726561746572207460008201527f68616e2030000000000000000000000000000000000000000000000000000000602082015250565b60006105886025836103fd565b91506105938261052c565b604082019050919050565b600060208201905081810360008301526105b78161057b565b9050919050565b7f4e487b7100000000000000000000000000000000000000000000000000000000600052601160045260246000fd5b60006105f882610339565b915061060383610339565b925082820190508082111561061b5761061a6105be565b5b9291505056fea2646970667358221220b6beac1cc2091f4effa4a44f0f6fd8a37d0b51aebb7d0036a23cd62b5992f12e64736f6c634300081c0033",
  "linkReferences": {},
  "deployedLinkReferences": {}
}